{
  "_format": "hh3-artifact-1",
  "contractName": "Campaign",
  "sourceName": "contracts/Campaign.sol",
  "abi": [
    {
      "inputs": [
        {
          "internalType": "address",
          "name": "_founder",
          "type": "address"
        },
        {
          "internalType": "string",
          "name": "_title",
          "type": "string"
        },
        {
          "internalType": "string",
          "name": "_description",
          "type": "string"
        },
        {
          "internalType": "string",
          "name": "_milestoneDescription",
          "type": "string"
        },
        {
          "internalType": "uint256",
          "name": "_goal",
          "type": "uint256"
        },
        {
          "internalType": "uint256",
          "name": "_deadline",
          "type": "uint256"
        },
        {
          "internalType": "string",
          "name": "_tokenName",
          "type": "string"
        },
        {
          "internalType": "string",
          "name": "_tokenSymbol",
          "type": "string"
        }
      ],
      "stateMutability": "nonpayable",
      "type": "constructor"
    },
    {
      "anonymous": false,
      "inputs": [],
      "name": "CampaignCancelled",
      "type": "event"
    },
    {
      "anonymous": false,
      "inputs": [
        {
          "indexed": true,
          "internalType": "address",
          "name": "founder",
          "type": "address"
        },
        {
          "indexed": false,
          "internalType": "uint256",
          "name": "amount",
          "type": "uint256"
        }
      ],
      "name": "FundsReleased",
      "type": "event"
    },
    {
      "anonymous": false,
      "inputs": [
        {
          "indexed": true,
          "internalType": "address",
          "name": "investor",
          "type": "address"
        },
        {
          "indexed": false,
          "internalType": "uint256",
          "name": "amount",
          "type": "uint256"
        },
        {
          "indexed": false,
          "internalType": "uint256",
          "name": "tokens",
          "type": "uint256"
        }
      ],
      "name": "Invested",
      "type": "event"
    },
    {
      "anonymous": false,
      "inputs": [
        {
          "indexed": true,
          "internalType": "address",
          "name": "investor",
          "type": "address"
        },
        {
          "indexed": false,
          "internalType": "uint256",
          "name": "amount",
          "type": "uint256"
        }
      ],
      "name": "Refunded",
      "type": "event"
    },
    {
      "anonymous": false,
      "inputs": [
        {
          "indexed": true,
          "internalType": "address",
          "name": "investor",
          "type": "address"
        },
        {
          "indexed": false,
          "internalType": "bool",
          "name": "vote",
          "type": "bool"
        },
        {
          "indexed": false,
          "internalType": "uint256",
          "name": "weight",
          "type": "uint256"
        }
      ],
      "name": "VoteCast",
      "type": "event"
    },
    {
      "anonymous": false,
      "inputs": [
        {
          "indexed": false,
          "internalType": "uint256",
          "name": "deadline",
          "type": "uint256"
        }
      ],
      "name": "VotingStarted",
      "type": "event"
    },
    {
      "inputs": [],
      "name": "QUORUM_PERCENT",
      "outputs": [
        {
          "internalType": "uint256",
          "name": "",
          "type": "uint256"
        }
      ],
      "stateMutability": "view",
      "type": "function"
    },
    {
      "inputs": [],
      "name": "TOTAL_SUPPLY",
      "outputs": [
        {
          "internalType": "uint256",
          "name": "",
          "type": "uint256"
        }
      ],
      "stateMutability": "view",
      "type": "function"
    },
    {
      "inputs": [],
      "name": "VOTING_PERIOD",
      "outputs": [
        {
          "internalType": "uint256",
          "name": "",
          "type": "uint256"
        }
      ],
      "stateMutability": "view",
      "type": "function"
    },
    {
      "inputs": [],
      "name": "cancelCampaign",
      "outputs": [],
      "stateMutability": "nonpayable",
      "type": "function"
    },
    {
      "inputs": [],
      "name": "cancelled",
      "outputs": [
        {
          "internalType": "bool",
          "name": "",
          "type": "bool"
        }
      ],
      "stateMutability": "view",
      "type": "function"
    },
    {
      "inputs": [],
      "name": "claimRefund",
      "outputs": [],
      "stateMutability": "nonpayable",
      "type": "function"
    },
    {
      "inputs": [],
      "name": "claimRefundCancelled",
      "outputs": [],
      "stateMutability": "nonpayable",
      "type": "function"
    },
    {
      "inputs": [
        {
          "internalType": "address",
          "name": "",
          "type": "address"
        }
      ],
      "name": "contributions",
      "outputs": [
        {
          "internalType": "uint256",
          "name": "",
          "type": "uint256"
        }
      ],
      "stateMutability": "view",
      "type": "function"
    },
    {
      "inputs": [],
      "name": "deadline",
      "outputs": [
        {
          "internalType": "uint256",
          "name": "",
          "type": "uint256"
        }
      ],
      "stateMutability": "view",
      "type": "function"
    },
    {
      "inputs": [],
      "name": "description",
      "outputs": [
        {
          "internalType": "string",
          "name": "",
          "type": "string"
        }
      ],
      "stateMutability": "view",
      "type": "function"
    },
    {
      "inputs": [],
      "name": "founder",
      "outputs": [
        {
          "internalType": "address",
          "name": "",
          "type": "address"
        }
      ],
      "stateMutability": "view",
      "type": "function"
    },
    {
      "inputs": [],
      "name": "fundsReleased",
      "outputs": [
        {
          "internalType": "bool",
          "name": "",
          "type": "bool"
        }
      ],
      "stateMutability": "view",
      "type": "function"
    },
    {
      "inputs": [],
      "name": "getCampaignInfo",
      "outputs": [
        {
          "internalType": "address",
          "name": "_founder",
          "type": "address"
        },
        {
          "internalType": "string",
          "name": "_title",
          "type": "string"
        },
        {
          "internalType": "string",
          "name": "_description",
          "type": "string"
        },
        {
          "internalType": "string",
          "name": "_milestoneDescription",
          "type": "string"
        },
        {
          "internalType": "uint256",
          "name": "_goal",
          "type": "uint256"
        },
        {
          "internalType": "uint256",
          "name": "_deadline",
          "type": "uint256"
        },
        {
          "internalType": "uint256",
          "name": "_totalRaised",
          "type": "uint256"
        },
        {
          "internalType": "bool",
          "name": "_goalReached",
          "type": "bool"
        },
        {
          "internalType": "bool",
          "name": "_fundsReleased",
          "type": "bool"
        },
        {
          "internalType": "bool",
          "name": "_cancelled",
          "type": "bool"
        }
      ],
      "stateMutability": "view",
      "type": "function"
    },
    {
      "inputs": [
        {
          "internalType": "address",
          "name": "investor",
          "type": "address"
        }
      ],
      "name": "getContribution",
      "outputs": [
        {
          "internalType": "uint256",
          "name": "",
          "type": "uint256"
        }
      ],
      "stateMutability": "view",
      "type": "function"
    },
    {
      "inputs": [],
      "name": "getInvestorCount",
      "outputs": [
        {
          "internalType": "uint256",
          "name": "",
          "type": "uint256"
        }
      ],
      "stateMutability": "view",
      "type": "function"
    },
    {
      "inputs": [],
      "name": "getVotingStatus",
      "outputs": [
        {
          "internalType": "bool",
          "name": "active",
          "type": "bool"
        },
        {
          "internalType": "uint256",
          "name": "yes",
          "type": "uint256"
        },
        {
          "internalType": "uint256",
          "name": "no",
          "type": "uint256"
        },
        {
          "internalType": "uint256",
          "name": "timeLeft",
          "type": "uint256"
        }
      ],
      "stateMutability": "view",
      "type": "function"
    },
    {
      "inputs": [],
      "name": "goal",
      "outputs": [
        {
          "internalType": "uint256",
          "name": "",
          "type": "uint256"
        }
      ],
      "stateMutability": "view",
      "type": "function"
    },
    {
      "inputs": [],
      "name": "goalReached",
      "outputs": [
        {
          "internalType": "bool",
          "name": "",
          "type": "bool"
        }
      ],
      "stateMutability": "view",
      "type": "function"
    },
    {
      "inputs": [
        {
          "internalType": "address",
          "name": "",
          "type": "address"
        }
      ],
      "name": "hasVoted",
      "outputs": [
        {
          "internalType": "bool",
          "name": "",
          "type": "bool"
        }
      ],
      "stateMutability": "view",
      "type": "function"
    },
    {
      "inputs": [],
      "name": "invest",
      "outputs": [],
      "stateMutability": "payable",
      "type": "function"
    },
    {
      "inputs": [
        {
          "internalType": "uint256",
          "name": "",
          "type": "uint256"
        }
      ],
      "name": "investors",
      "outputs": [
        {
          "internalType": "address",
          "name": "",
          "type": "address"
        }
      ],
      "stateMutability": "view",
      "type": "function"
    },
    {
      "inputs": [],
      "name": "milestoneDescription",
      "outputs": [
        {
          "internalType": "string",
          "name": "",
          "type": "string"
        }
      ],
      "stateMutability": "view",
      "type": "function"
    },
    {
      "inputs": [],
      "name": "releaseFunds",
      "outputs": [],
      "stateMutability": "nonpayable",
      "type": "function"
    },
    {
      "inputs": [],
      "name": "startVoting",
      "outputs": [],
      "stateMutability": "nonpayable",
      "type": "function"
    },
    {
      "inputs": [],
      "name": "title",
      "outputs": [
        {
          "internalType": "string",
          "name": "",
          "type": "string"
        }
      ],
      "stateMutability": "view",
      "type": "function"
    },
    {
      "inputs": [],
      "name": "token",
      "outputs": [
        {
          "internalType": "contract CampaignToken",
          "name": "",
          "type": "address"
        }
      ],
      "stateMutability": "view",
      "type": "function"
    },
    {
      "inputs": [],
      "name": "totalRaised",
      "outputs": [
        {
          "internalType": "uint256",
          "name": "",
          "type": "uint256"
        }
      ],
      "stateMutability": "view",
      "type": "function"
    },
    {
      "inputs": [
        {
          "internalType": "bool",
          "name": "approve",
          "type": "bool"
        }
      ],
      "name": "vote",
      "outputs": [],
      "stateMutability": "nonpayable",
      "type": "function"
    },
    {
      "inputs": [],
      "name": "voteNo",
      "outputs": [
        {
          "internalType": "uint256",
          "name": "",
          "type": "uint256"
        }
      ],
      "stateMutability": "view",
      "type": "function"
    },
    {
      "inputs": [],
      "name": "voteYes",
      "outputs": [
        {
          "internalType": "uint256",
          "name": "",
          "type": "uint256"
        }
      ],
      "stateMutability": "view",
      "type": "function"
    },
    {
      "inputs": [],
      "name": "votingActive",
      "outputs": [
        {
          "internalType": "bool",
          "name": "",
          "type": "bool"
        }
      ],
      "stateMutability": "view",
      "type": "function"
    },
    {
      "inputs": [],
      "name": "votingDeadline",
      "outputs": [
        {
          "internalType": "uint256",
          "name": "",
          "type": "uint256"
        }
      ],
      "stateMutability": "view",
      "type": "function"
    }
  ],
  "bytecode": "0x608060405234801561000f575f5ffd5b50604051614f43380380614f438339818101604052810190610031919061039b565b5f8411610073576040517f08c379a000000000000000000000000000000000000000000000000000000000815260040161006a90610532565b60405180910390fd5b4283116100b5576040517f08c379a00000000000000000000000000000000000000000000000000000000081526004016100ac9061059a565b60405180910390fd5b875f5f6101000a81548173ffffffffffffffffffffffffffffffffffffffff021916908373ffffffffffffffffffffffffffffffffffffffff160217905550866001908161010391906107bf565b50856002908161011391906107bf565b50846003908161012391906107bf565b508360048190555082600581905550818130604051610141906101b4565b61014d939291906108d5565b604051809103905ff080158015610166573d5f5f3e3d5ffd5b50600760036101000a81548173ffffffffffffffffffffffffffffffffffffffff021916908373ffffffffffffffffffffffffffffffffffffffff1602179055505050505050505050610918565b6118008061374383390190565b5f604051905090565b5f5ffd5b5f5ffd5b5f73ffffffffffffffffffffffffffffffffffffffff82169050919050565b5f6101fb826101d2565b9050919050565b61020b816101f1565b8114610215575f5ffd5b50565b5f8151905061022681610202565b92915050565b5f5ffd5b5f5ffd5b5f601f19601f8301169050919050565b7f4e487b71000000000000000000000000000000000000000000000000000000005f52604160045260245ffd5b61027a82610234565b810181811067ffffffffffffffff8211171561029957610298610244565b5b80604052505050565b5f6102ab6101c1565b90506102b78282610271565b919050565b5f67ffffffffffffffff8211156102d6576102d5610244565b5b6102df82610234565b9050602081019050919050565b8281835e5f83830152505050565b5f61030c610307846102bc565b6102a2565b90508281526020810184848401111561032857610327610230565b5b6103338482856102ec565b509392505050565b5f82601f83011261034f5761034e61022c565b5b815161035f8482602086016102fa565b91505092915050565b5f819050919050565b61037a81610368565b8114610384575f5ffd5b50565b5f8151905061039581610371565b92915050565b5f5f5f5f5f5f5f5f610100898b0312156103b8576103b76101ca565b5b5f6103c58b828c01610218565b985050602089015167ffffffffffffffff8111156103e6576103e56101ce565b5b6103f28b828c0161033b565b975050604089015167ffffffffffffffff811115610413576104126101ce565b5b61041f8b828c0161033b565b965050606089015167ffffffffffffffff8111156104405761043f6101ce565b5b61044c8b828c0161033b565b955050608061045d8b828c01610387565b94505060a061046e8b828c01610387565b93505060c089015167ffffffffffffffff81111561048f5761048e6101ce565b5b61049b8b828c0161033b565b92505060e089015167ffffffffffffffff8111156104bc576104bb6101ce565b5b6104c88b828c0161033b565b9150509295985092959890939650565b5f82825260208201905092915050565b7f476f616c206d7573742062652067726561746572207468616e203000000000005f82015250565b5f61051c601b836104d8565b9150610527826104e8565b602082019050919050565b5f6020820190508181035f83015261054981610510565b9050919050565b7f446561646c696e65206d75737420626520696e206675747572650000000000005f82015250565b5f610584601a836104d8565b915061058f82610550565b602082019050919050565b5f6020820190508181035f8301526105b181610578565b9050919050565b5f81519050919050565b7f4e487b71000000000000000000000000000000000000000000000000000000005f52602260045260245ffd5b5f600282049050600182168061060657607f821691505b602082108103610619576106186105c2565b5b50919050565b5f819050815f5260205f209050919050565b5f6020601f8301049050919050565b5f82821b905092915050565b5f6008830261067b7fffffffffffffffffffffffffffffffffffffffffffffffffffffffffffffffff82610640565b6106858683610640565b95508019841693508086168417925050509392505050565b5f819050919050565b5f6106c06106bb6106b684610368565b61069d565b610368565b9050919050565b5f819050919050565b6106d9836106a6565b6106ed6106e5826106c7565b84845461064c565b825550505050565b5f5f905090565b6107046106f5565b61070f8184846106d0565b505050565b5b81811015610732576107275f826106fc565b600181019050610715565b5050565b601f821115610777576107488161061f565b61075184610631565b81016020851015610760578190505b61077461076c85610631565b830182610714565b50505b505050565b5f82821c905092915050565b5f6107975f198460080261077c565b1980831691505092915050565b5f6107af8383610788565b9150826002028217905092915050565b6107c8826105b8565b67ffffffffffffffff8111156107e1576107e0610244565b5b6107eb82546105ef565b6107f6828285610736565b5f60209050601f831160018114610827575f8415610815578287015190505b61081f85826107a4565b865550610886565b601f1984166108358661061f565b5f5b8281101561085c57848901518255600182019150602085019450602081019050610837565b868310156108795784890151610875601f891682610788565b8355505b6001600288020188555050505b505050505050565b5f610898826105b8565b6108a281856104d8565b93506108b28185602086016102ec565b6108bb81610234565b840191505092915050565b6108cf816101f1565b82525050565b5f6060820190508181035f8301526108ed818661088e565b90508181036020830152610901818561088e565b905061091060408301846108c6565b949350505050565b612e1e806109255f395ff3fe6080604052600436106101e2575f3560e01c806369d8957511610101578063b1610d7e11610094578063c5c4744c11610063578063c5c4744c14610663578063d6290cd71461068d578063e8b5e51f146106c0578063fc0c546a146106ca576101e2565b8063b1610d7e146105cf578063b5545a3c146105f9578063b564e9261461060f578063c00ce00114610639576101e2565b806390cf581c116100d057806390cf581c1461053b578063960524e314610565578063980e78441461058f5780639a82a09a146105a5576101e2565b806369d89575146104a75780637284e416146104bd5780637d3d6522146104e7578063902d55a514610511576101e2565b806340193883116101795780634a79d50c116101485780634a79d50c146103fe5780634b9f5c98146104285780634d853ee514610450578063581c281c1461047a576101e2565b80634019388314610344578063408e27271461036e57806341c12a701461039857806342e94c90146103c2576101e2565b8063208fb590116101b5578063208fb5901461027857806321eff7fc146102a257806329dcb0cf146102de5780633feb5f2b14610308576101e2565b8063036ee850146101e657806309eef43e146102105780630d378b1b1461024c5780631ec6b60a14610262575b5f5ffd5b3480156101f1575f5ffd5b506101fa6106f4565b6040516102079190611f19565b60405180910390f35b34801561021b575f5ffd5b5061023660048036038101906102319190611f90565b6106fa565b6040516102439190611fd5565b60405180910390f35b348015610257575f5ffd5b50610260610717565b005b34801561026d575f5ffd5b506102766108fd565b005b348015610283575f5ffd5b5061028c610ae2565b6040516102999190611f19565b60405180910390f35b3480156102ad575f5ffd5b506102c860048036038101906102c39190611f90565b610ae7565b6040516102d59190611f19565b60405180910390f35b3480156102e9575f5ffd5b506102f2610b2d565b6040516102ff9190611f19565b60405180910390f35b348015610313575f5ffd5b5061032e60048036038101906103299190612018565b610b33565b60405161033b9190612052565b60405180910390f35b34801561034f575f5ffd5b50610358610b6e565b6040516103659190611f19565b60405180910390f35b348015610379575f5ffd5b50610382610b74565b60405161038f9190611fd5565b60405180910390f35b3480156103a3575f5ffd5b506103ac610b86565b6040516103b99190611f19565b60405180910390f35b3480156103cd575f5ffd5b506103e860048036038101906103e39190611f90565b610b8c565b6040516103f59190611f19565b60405180910390f35b348015610409575f5ffd5b50610412610ba1565b60405161041f91906120db565b60405180910390f35b348015610433575f5ffd5b5061044e60048036038101906104499190612125565b610c2d565b005b34801561045b575f5ffd5b50610464610f0d565b6040516104719190612052565b60405180910390f35b348015610485575f5ffd5b5061048e610f31565b60405161049e9493929190612150565b60405180910390f35b3480156104b2575f5ffd5b506104bb610f7b565b005b3480156104c8575f5ffd5b506104d1611341565b6040516104de91906120db565b60405180910390f35b3480156104f2575f5ffd5b506104fb6113cd565b6040516105089190611fd5565b60405180910390f35b34801561051c575f5ffd5b506105256113df565b6040516105329190611f19565b60405180910390f35b348015610546575f5ffd5b5061054f6113ed565b60405161055c9190611f19565b60405180910390f35b348015610570575f5ffd5b506105796113f3565b6040516105869190611f19565b60405180910390f35b34801561059a575f5ffd5b506105a36113ff565b005b3480156105b0575f5ffd5b506105b9611575565b6040516105c69190611fd5565b60405180910390f35b3480156105da575f5ffd5b506105e3611588565b6040516105f09190611f19565b60405180910390f35b348015610604575f5ffd5b5061060d61158f565b005b34801561061a575f5ffd5b50610623611820565b6040516106309190611fd5565b60405180910390f35b348015610644575f5ffd5b5061064d611833565b60405161065a91906120db565b60405180910390f35b34801561066e575f5ffd5b506106776118bf565b6040516106849190611f19565b60405180910390f35b348015610698575f5ffd5b506106a16118c5565b6040516106b79a99989796959493929190612193565b60405180910390f35b6106c8611aee565b005b3480156106d5575f5ffd5b506106de611edb565b6040516106eb919061229d565b60405180910390f35b600b5481565b600e602052805f5260405f205f915054906101000a900460ff1681565b600760029054906101000a900460ff16610766576040517f08c379a000000000000000000000000000000000000000000000000000000000815260040161075d90612300565b60405180910390fd5b5f60085f3373ffffffffffffffffffffffffffffffffffffffff1673ffffffffffffffffffffffffffffffffffffffff1681526020019081526020015f2054116107e5576040517f08c379a00000000000000000000000000000000000000000000000000000000081526004016107dc90612368565b60405180910390fd5b5f60085f3373ffffffffffffffffffffffffffffffffffffffff1673ffffffffffffffffffffffffffffffffffffffff1681526020019081526020015f205490505f60085f3373ffffffffffffffffffffffffffffffffffffffff1673ffffffffffffffffffffffffffffffffffffffff1681526020019081526020015f20819055503373ffffffffffffffffffffffffffffffffffffffff166108fc8290811502906040515f60405180830381858888f193505050501580156108ab573d5f5f3e3d5ffd5b503373ffffffffffffffffffffffffffffffffffffffff167fd7dee2702d63ad89917b6a4da9981c90c4d24f8c2bdfd64c604ecae57d8d0651826040516108f29190611f19565b60405180910390a250565b5f5f9054906101000a900473ffffffffffffffffffffffffffffffffffffffff1673ffffffffffffffffffffffffffffffffffffffff163373ffffffffffffffffffffffffffffffffffffffff161461098b576040517f08c379a0000000000000000000000000000000000000000000000000000000008152600401610982906123d0565b60405180910390fd5b60075f9054906101000a900460ff166109d9576040517f08c379a00000000000000000000000000000000000000000000000000000000081526004016109d090612438565b60405180910390fd5b600a5f9054906101000a900460ff1615610a28576040517f08c379a0000000000000000000000000000000000000000000000000000000008152600401610a1f906124a0565b60405180910390fd5b600760019054906101000a900460ff1615610a78576040517f08c379a0000000000000000000000000000000000000000000000000000000008152600401610a6f90612508565b60405180910390fd5b6001600a5f6101000a81548160ff02191690831515021790555062093a8042610aa19190612553565b600b819055507fcf33babc496bb6dc2942b39cb7b75766bbbadf7da50d176ff8c513e991140239600b54604051610ad89190611f19565b60405180910390a1565b603381565b5f60085f8373ffffffffffffffffffffffffffffffffffffffff1673ffffffffffffffffffffffffffffffffffffffff1681526020019081526020015f20549050919050565b60055481565b60098181548110610b42575f80fd5b905f5260205f20015f915054906101000a900473ffffffffffffffffffffffffffffffffffffffff1681565b60045481565b600a5f9054906101000a900460ff1681565b600d5481565b6008602052805f5260405f205f915090505481565b60018054610bae906125b3565b80601f0160208091040260200160405190810160405280929190818152602001828054610bda906125b3565b8015610c255780601f10610bfc57610100808354040283529160200191610c25565b820191905f5260205f20905b815481529060010190602001808311610c0857829003601f168201915b505050505081565b600a5f9054906101000a900460ff16610c7b576040517f08c379a0000000000000000000000000000000000000000000000000000000008152600401610c729061262d565b60405180910390fd5b600b544210610cbf576040517f08c379a0000000000000000000000000000000000000000000000000000000008152600401610cb690612695565b60405180910390fd5b600e5f3373ffffffffffffffffffffffffffffffffffffffff1673ffffffffffffffffffffffffffffffffffffffff1681526020019081526020015f205f9054906101000a900460ff1615610d49576040517f08c379a0000000000000000000000000000000000000000000000000000000008152600401610d40906126fd565b60405180910390fd5b5f600760039054906101000a900473ffffffffffffffffffffffffffffffffffffffff1673ffffffffffffffffffffffffffffffffffffffff166370a08231336040518263ffffffff1660e01b8152600401610da59190612052565b602060405180830381865afa158015610dc0573d5f5f3e3d5ffd5b505050506040513d601f19601f82011682018060405250810190610de4919061272f565b90505f8111610e28576040517f08c379a0000000000000000000000000000000000000000000000000000000008152600401610e1f906127a4565b60405180910390fd5b6001600e5f3373ffffffffffffffffffffffffffffffffffffffff1673ffffffffffffffffffffffffffffffffffffffff1681526020019081526020015f205f6101000a81548160ff0219169083151502179055508115610ea05780600c5f828254610e949190612553565b92505081905550610eb9565b80600d5f828254610eb19190612553565b925050819055505b3373ffffffffffffffffffffffffffffffffffffffff167fee391b98d4a2ae151cf2a3ff41a91815d53d538cbf757be55dad3d71a33838d88383604051610f019291906127c2565b60405180910390a25050565b5f5f9054906101000a900473ffffffffffffffffffffffffffffffffffffffff1681565b5f5f5f5f5f42600b5411610f45575f610f54565b42600b54610f5391906127e9565b5b9050600a5f9054906101000a900460ff16600c54600d548394509450945094505090919293565b5f5f9054906101000a900473ffffffffffffffffffffffffffffffffffffffff1673ffffffffffffffffffffffffffffffffffffffff163373ffffffffffffffffffffffffffffffffffffffff1614611009576040517f08c379a0000000000000000000000000000000000000000000000000000000008152600401611000906123d0565b60405180910390fd5b600760019054906101000a900460ff1615611059576040517f08c379a000000000000000000000000000000000000000000000000000000000815260040161105090612508565b60405180910390fd5b600a5f9054906101000a900460ff166110a7576040517f08c379a000000000000000000000000000000000000000000000000000000000815260040161109e90612866565b60405180910390fd5b600b544210156110ec576040517f08c379a00000000000000000000000000000000000000000000000000000000081526004016110e3906128ce565b60405180910390fd5b5f600d54600c546110fd9190612553565b90505f600760039054906101000a900473ffffffffffffffffffffffffffffffffffffffff1673ffffffffffffffffffffffffffffffffffffffff166318160ddd6040518163ffffffff1660e01b8152600401602060405180830381865afa15801561116b573d5f5f3e3d5ffd5b505050506040513d601f19601f8201168201806040525081019061118f919061272f565b905060338161119e91906128ec565b6064836111ab91906128ec565b10156111ec576040517f08c379a00000000000000000000000000000000000000000000000000000000081526004016111e390612977565b60405180910390fd5b600d54600c5411611232576040517f08c379a0000000000000000000000000000000000000000000000000000000008152600401611229906129df565b60405180910390fd5b6001600760016101000a81548160ff0219169083151502179055505f600a5f6101000a81548160ff0219169083151502179055505f4790505f5f9054906101000a900473ffffffffffffffffffffffffffffffffffffffff1673ffffffffffffffffffffffffffffffffffffffff166108fc8290811502906040515f60405180830381858888f193505050501580156112cd573d5f5f3e3d5ffd5b505f5f9054906101000a900473ffffffffffffffffffffffffffffffffffffffff1673ffffffffffffffffffffffffffffffffffffffff167f221c08a06b07a64803b3787861a3f276212fcccb51c2e6234077a9b8cb13047a826040516113349190611f19565b60405180910390a2505050565b6002805461134e906125b3565b80601f016020809104026020016040519081016040528092919081815260200182805461137a906125b3565b80156113c55780601f1061139c576101008083540402835291602001916113c5565b820191905f5260205f20905b8154815290600101906020018083116113a857829003601f168201915b505050505081565b60075f9054906101000a900460ff1681565b69021e19e0c9bab240000081565b600c5481565b5f600980549050905090565b5f5f9054906101000a900473ffffffffffffffffffffffffffffffffffffffff1673ffffffffffffffffffffffffffffffffffffffff163373ffffffffffffffffffffffffffffffffffffffff161461148d576040517f08c379a0000000000000000000000000000000000000000000000000000000008152600401611484906123d0565b60405180910390fd5b60075f9054906101000a900460ff16156114dc576040517f08c379a00000000000000000000000000000000000000000000000000000000081526004016114d390612a47565b60405180910390fd5b600760019054906101000a900460ff161561152c576040517f08c379a000000000000000000000000000000000000000000000000000000000815260040161152390612508565b60405180910390fd5b6001600760026101000a81548160ff0219169083151502179055507f123d4f203b2b83bfe9f45903402bb88193cc56a43371d97ab5a51bd1817d858660405160405180910390a1565b600760029054906101000a900460ff1681565b62093a8081565b600554421015806115ab575060075f9054906101000a900460ff165b6115ea576040517f08c379a00000000000000000000000000000000000000000000000000000000081526004016115e190612aaf565b60405180910390fd5b60075f9054906101000a900460ff1615611639576040517f08c379a000000000000000000000000000000000000000000000000000000000815260040161163090612b17565b60405180910390fd5b600760029054906101000a900460ff1615611689576040517f08c379a000000000000000000000000000000000000000000000000000000000815260040161168090612b7f565b60405180910390fd5b5f60085f3373ffffffffffffffffffffffffffffffffffffffff1673ffffffffffffffffffffffffffffffffffffffff1681526020019081526020015f205411611708576040517f08c379a00000000000000000000000000000000000000000000000000000000081526004016116ff90612368565b60405180910390fd5b5f60085f3373ffffffffffffffffffffffffffffffffffffffff1673ffffffffffffffffffffffffffffffffffffffff1681526020019081526020015f205490505f60085f3373ffffffffffffffffffffffffffffffffffffffff1673ffffffffffffffffffffffffffffffffffffffff1681526020019081526020015f20819055503373ffffffffffffffffffffffffffffffffffffffff166108fc8290811502906040515f60405180830381858888f193505050501580156117ce573d5f5f3e3d5ffd5b503373ffffffffffffffffffffffffffffffffffffffff167fd7dee2702d63ad89917b6a4da9981c90c4d24f8c2bdfd64c604ecae57d8d0651826040516118159190611f19565b60405180910390a250565b600760019054906101000a900460ff1681565b60038054611840906125b3565b80601f016020809104026020016040519081016040528092919081815260200182805461186c906125b3565b80156118b75780601f1061188e576101008083540402835291602001916118b7565b820191905f5260205f20905b81548152906001019060200180831161189a57829003601f168201915b505050505081565b60065481565b5f60608060605f5f5f5f5f5f5f5f9054906101000a900473ffffffffffffffffffffffffffffffffffffffff1660016002600360045460055460065460075f9054906101000a900460ff16600760019054906101000a900460ff16600760029054906101000a900460ff1688805461193c906125b3565b80601f0160208091040260200160405190810160405280929190818152602001828054611968906125b3565b80156119b35780601f1061198a576101008083540402835291602001916119b3565b820191905f5260205f20905b81548152906001019060200180831161199657829003601f168201915b505050505098508780546119c6906125b3565b80601f01602080910402602001604051908101604052809291908181526020018280546119f2906125b3565b8015611a3d5780601f10611a1457610100808354040283529160200191611a3d565b820191905f5260205f20905b815481529060010190602001808311611a2057829003601f168201915b50505050509750868054611a50906125b3565b80601f0160208091040260200160405190810160405280929190818152602001828054611a7c906125b3565b8015611ac75780601f10611a9e57610100808354040283529160200191611ac7565b820191905f5260205f20905b815481529060010190602001808311611aaa57829003601f168201915b50505050509650995099509950995099509950995099509950995090919293949596979899565b600760029054906101000a900460ff1615611b3e576040517f08c379a0000000000000000000000000000000000000000000000000000000008152600401611b3590612be7565b60405180910390fd5b6005544210611b82576040517f08c379a0000000000000000000000000000000000000000000000000000000008152600401611b7990612c4f565b60405180910390fd5b600760019054906101000a900460ff1615611bd2576040517f08c379a0000000000000000000000000000000000000000000000000000000008152600401611bc990612508565b60405180910390fd5b5f3411611c14576040517f08c379a0000000000000000000000000000000000000000000000000000000008152600401611c0b90612cb7565b60405180910390fd5b5f5f9054906101000a900473ffffffffffffffffffffffffffffffffffffffff1673ffffffffffffffffffffffffffffffffffffffff163373ffffffffffffffffffffffffffffffffffffffff1603611ca2576040517f08c379a0000000000000000000000000000000000000000000000000000000008152600401611c9990612d1f565b60405180910390fd5b5f60085f3373ffffffffffffffffffffffffffffffffffffffff1673ffffffffffffffffffffffffffffffffffffffff1681526020019081526020015f205403611d4757600933908060018154018082558091505060019003905f5260205f20015f9091909190916101000a81548173ffffffffffffffffffffffffffffffffffffffff021916908373ffffffffffffffffffffffffffffffffffffffff1602179055505b3460085f3373ffffffffffffffffffffffffffffffffffffffff1673ffffffffffffffffffffffffffffffffffffffff1681526020019081526020015f205f828254611d939190612553565b925050819055503460065f828254611dab9190612553565b925050819055505f60045469021e19e0c9bab240000034611dcc91906128ec565b611dd69190612d6a565b9050600760039054906101000a900473ffffffffffffffffffffffffffffffffffffffff1673ffffffffffffffffffffffffffffffffffffffff166340c10f1933836040518363ffffffff1660e01b8152600401611e35929190612d9a565b5f604051808303815f87803b158015611e4c575f5ffd5b505af1158015611e5e573d5f5f3e3d5ffd5b5050505060045460065410611e8857600160075f6101000a81548160ff0219169083151502179055505b3373ffffffffffffffffffffffffffffffffffffffff167f9e9d071824fd57d062ca63fd8b786d8da48a6807eebbcb2d83f9e8d21398e28c3483604051611ed0929190612dc1565b60405180910390a250565b600760039054906101000a900473ffffffffffffffffffffffffffffffffffffffff1681565b5f819050919050565b611f1381611f01565b82525050565b5f602082019050611f2c5f830184611f0a565b92915050565b5f5ffd5b5f73ffffffffffffffffffffffffffffffffffffffff82169050919050565b5f611f5f82611f36565b9050919050565b611f6f81611f55565b8114611f79575f5ffd5b50565b5f81359050611f8a81611f66565b92915050565b5f60208284031215611fa557611fa4611f32565b5b5f611fb284828501611f7c565b91505092915050565b5f8115159050919050565b611fcf81611fbb565b82525050565b5f602082019050611fe85f830184611fc6565b92915050565b611ff781611f01565b8114612001575f5ffd5b50565b5f8135905061201281611fee565b92915050565b5f6020828403121561202d5761202c611f32565b5b5f61203a84828501612004565b91505092915050565b61204c81611f55565b82525050565b5f6020820190506120655f830184612043565b92915050565b5f81519050919050565b5f82825260208201905092915050565b8281835e5f83830152505050565b5f601f19601f8301169050919050565b5f6120ad8261206b565b6120b78185612075565b93506120c7818560208601612085565b6120d081612093565b840191505092915050565b5f6020820190508181035f8301526120f381846120a3565b905092915050565b61210481611fbb565b811461210e575f5ffd5b50565b5f8135905061211f816120fb565b92915050565b5f6020828403121561213a57612139611f32565b5b5f61214784828501612111565b91505092915050565b5f6080820190506121635f830187611fc6565b6121706020830186611f0a565b61217d6040830185611f0a565b61218a6060830184611f0a565b95945050505050565b5f610140820190506121a75f83018d612043565b81810360208301526121b9818c6120a3565b905081810360408301526121cd818b6120a3565b905081810360608301526121e1818a6120a3565b90506121f06080830189611f0a565b6121fd60a0830188611f0a565b61220a60c0830187611f0a565b61221760e0830186611fc6565b612225610100830185611fc6565b612233610120830184611fc6565b9b9a5050505050505050505050565b5f819050919050565b5f61226561226061225b84611f36565b612242565b611f36565b9050919050565b5f6122768261224b565b9050919050565b5f6122878261226c565b9050919050565b6122978161227d565b82525050565b5f6020820190506122b05f83018461228e565b92915050565b7f43616d706169676e206e6f742063616e63656c6c6564000000000000000000005f82015250565b5f6122ea601683612075565b91506122f5826122b6565b602082019050919050565b5f6020820190508181035f830152612317816122de565b9050919050565b7f4e6f20636f6e747269627574696f6e20666f756e6400000000000000000000005f82015250565b5f612352601583612075565b915061235d8261231e565b602082019050919050565b5f6020820190508181035f83015261237f81612346565b9050919050565b7f4f6e6c7920666f756e6465722063616e2063616c6c20746869730000000000005f82015250565b5f6123ba601a83612075565b91506123c582612386565b602082019050919050565b5f6020820190508181035f8301526123e7816123ae565b9050919050565b7f476f616c206e6f742072656163686564207965740000000000000000000000005f82015250565b5f612422601483612075565b915061242d826123ee565b602082019050919050565b5f6020820190508181035f83015261244f81612416565b9050919050565b7f566f74696e6720616c72656164792061637469766500000000000000000000005f82015250565b5f61248a601583612075565b915061249582612456565b602082019050919050565b5f6020820190508181035f8301526124b78161247e565b9050919050565b7f46756e647320616c72656164792072656c6561736564000000000000000000005f82015250565b5f6124f2601683612075565b91506124fd826124be565b602082019050919050565b5f6020820190508181035f83015261251f816124e6565b9050919050565b7f4e487b71000000000000000000000000000000000000000000000000000000005f52601160045260245ffd5b5f61255d82611f01565b915061256883611f01565b92508282019050808211156125805761257f612526565b5b92915050565b7f4e487b71000000000000000000000000000000000000000000000000000000005f52602260045260245ffd5b5f60028204905060018216806125ca57607f821691505b6020821081036125dd576125dc612586565b5b50919050565b7f566f74696e67206973206e6f74206163746976650000000000000000000000005f82015250565b5f612617601483612075565b9150612622826125e3565b602082019050919050565b5f6020820190508181035f8301526126448161260b565b9050919050565b7f566f74696e6720706572696f6420656e646564000000000000000000000000005f82015250565b5f61267f601383612075565b915061268a8261264b565b602082019050919050565b5f6020820190508181035f8301526126ac81612673565b9050919050565b7f416c726561647920766f746564000000000000000000000000000000000000005f82015250565b5f6126e7600d83612075565b91506126f2826126b3565b602082019050919050565b5f6020820190508181035f830152612714816126db565b9050919050565b5f8151905061272981611fee565b92915050565b5f6020828403121561274457612743611f32565b5b5f6127518482850161271b565b91505092915050565b7f4d75737420626520616e20696e766573746f7220746f20766f746500000000005f82015250565b5f61278e601b83612075565b91506127998261275a565b602082019050919050565b5f6020820190508181035f8301526127bb81612782565b9050919050565b5f6040820190506127d55f830185611fc6565b6127e26020830184611f0a565b9392505050565b5f6127f382611f01565b91506127fe83611f01565b925082820390508181111561281657612815612526565b5b92915050565b7f566f74696e67206e6f74207374617274656400000000000000000000000000005f82015250565b5f612850601283612075565b915061285b8261281c565b602082019050919050565b5f6020820190508181035f83015261287d81612844565b9050919050565b7f566f74696e6720706572696f64206e6f7420656e6465642079657400000000005f82015250565b5f6128b8601b83612075565b91506128c382612884565b602082019050919050565b5f6020820190508181035f8301526128e5816128ac565b9050919050565b5f6128f682611f01565b915061290183611f01565b925082820261290f81611f01565b9150828204841483151761292657612925612526565b5b5092915050565b7f51756f72756d206e6f74207265616368656400000000000000000000000000005f82015250565b5f612961601283612075565b915061296c8261292d565b602082019050919050565b5f6020820190508181035f83015261298e81612955565b9050919050565b7f566f746520646964206e6f7420706173730000000000000000000000000000005f82015250565b5f6129c9601183612075565b91506129d482612995565b602082019050919050565b5f6020820190508181035f8301526129f6816129bd565b9050919050565b7f43616e6e6f742063616e63656c20616674657220676f616c20726561636865645f82015250565b5f612a31602083612075565b9150612a3c826129fd565b602082019050919050565b5f6020820190508181035f830152612a5e81612a25565b9050919050565b7f43616d706169676e207374696c6c2061637469766500000000000000000000005f82015250565b5f612a99601583612075565b9150612aa482612a65565b602082019050919050565b5f6020820190508181035f830152612ac681612a8d565b9050919050565b7f476f616c2077617320726561636865642c206e6f20726566756e6473000000005f82015250565b5f612b01601c83612075565b9150612b0c82612acd565b602082019050919050565b5f6020820190508181035f830152612b2e81612af5565b9050919050565b7f55736520636c61696d526566756e6443616e63656c6c656400000000000000005f82015250565b5f612b69601883612075565b9150612b7482612b35565b602082019050919050565b5f6020820190508181035f830152612b9681612b5d565b9050919050565b7f43616d706169676e2069732063616e63656c6c656400000000000000000000005f82015250565b5f612bd1601583612075565b9150612bdc82612b9d565b602082019050919050565b5f6020820190508181035f830152612bfe81612bc5565b9050919050565b7f43616d706169676e20646561646c696e652070617373656400000000000000005f82015250565b5f612c39601883612075565b9150612c4482612c05565b602082019050919050565b5f6020820190508181035f830152612c6681612c2d565b9050919050565b7f4d7573742073656e642045544820746f20696e766573740000000000000000005f82015250565b5f612ca1601783612075565b9150612cac82612c6d565b602082019050919050565b5f6020820190508181035f830152612cce81612c95565b9050919050565b7f466f756e6465722063616e6e6f7420696e7665737400000000000000000000005f82015250565b5f612d09601583612075565b9150612d1482612cd5565b602082019050919050565b5f6020820190508181035f830152612d3681612cfd565b9050919050565b7f4e487b71000000000000000000000000000000000000000000000000000000005f52601260045260245ffd5b5f612d7482611f01565b9150612d7f83611f01565b925082612d8f57612d8e612d3d565b5b828204905092915050565b5f604082019050612dad5f830185612043565b612dba6020830184611f0a565b9392505050565b5f604082019050612dd45f830185611f0a565b612de16020830184611f0a565b939250505056fea2646970667358221220039d39a2ce847a175de0e4d11ec4795e4a1f317b69cfeea7bc29bea6fc2a362764736f6c634300081c0033608060405234801561000f575f5ffd5b5060405161180038038061180083398181016040528101906100319190610348565b808383816003908161004391906105e0565b50806004908161005391906105e0565b5050505f73ffffffffffffffffffffffffffffffffffffffff168173ffffffffffffffffffffffffffffffffffffffff16036100c6575f6040517f1e4fbdf70000000000000000000000000000000000000000000000000000000081526004016100bd91906106be565b60405180910390fd5b6100d5816100de60201b60201c565b505050506106d7565b5f60055f9054906101000a900473ffffffffffffffffffffffffffffffffffffffff1690508160055f6101000a81548173ffffffffffffffffffffffffffffffffffffffff021916908373ffffffffffffffffffffffffffffffffffffffff1602179055508173ffffffffffffffffffffffffffffffffffffffff168173ffffffffffffffffffffffffffffffffffffffff167f8be0079c531659141344cd1fd0a4f28419497f9722a3daafe3b4186f6b6457e060405160405180910390a35050565b5f604051905090565b5f5ffd5b5f5ffd5b5f5ffd5b5f5ffd5b5f601f19601f8301169050919050565b7f4e487b71000000000000000000000000000000000000000000000000000000005f52604160045260245ffd5b610200826101ba565b810181811067ffffffffffffffff8211171561021f5761021e6101ca565b5b80604052505050565b5f6102316101a1565b905061023d82826101f7565b919050565b5f67ffffffffffffffff82111561025c5761025b6101ca565b5b610265826101ba565b9050602081019050919050565b8281835e5f83830152505050565b5f61029261028d84610242565b610228565b9050828152602081018484840111156102ae576102ad6101b6565b5b6102b9848285610272565b509392505050565b5f82601f8301126102d5576102d46101b2565b5b81516102e5848260208601610280565b91505092915050565b5f73ffffffffffffffffffffffffffffffffffffffff82169050919050565b5f610317826102ee565b9050919050565b6103278161030d565b8114610331575f5ffd5b50565b5f815190506103428161031e565b92915050565b5f5f5f6060848603121561035f5761035e6101aa565b5b5f84015167ffffffffffffffff81111561037c5761037b6101ae565b5b610388868287016102c1565b935050602084015167ffffffffffffffff8111156103a9576103a86101ae565b5b6103b5868287016102c1565b92505060406103c686828701610334565b9150509250925092565b5f81519050919050565b7f4e487b71000000000000000000000000000000000000000000000000000000005f52602260045260245ffd5b5f600282049050600182168061041e57607f821691505b602082108103610431576104306103da565b5b50919050565b5f819050815f5260205f209050919050565b5f6020601f8301049050919050565b5f82821b905092915050565b5f600883026104937fffffffffffffffffffffffffffffffffffffffffffffffffffffffffffffffff82610458565b61049d8683610458565b95508019841693508086168417925050509392505050565b5f819050919050565b5f819050919050565b5f6104e16104dc6104d7846104b5565b6104be565b6104b5565b9050919050565b5f819050919050565b6104fa836104c7565b61050e610506826104e8565b848454610464565b825550505050565b5f5f905090565b610525610516565b6105308184846104f1565b505050565b5b81811015610553576105485f8261051d565b600181019050610536565b5050565b601f8211156105985761056981610437565b61057284610449565b81016020851015610581578190505b61059561058d85610449565b830182610535565b50505b505050565b5f82821c905092915050565b5f6105b85f198460080261059d565b1980831691505092915050565b5f6105d083836105a9565b9150826002028217905092915050565b6105e9826103d0565b67ffffffffffffffff811115610602576106016101ca565b5b61060c8254610407565b610617828285610557565b5f60209050601f831160018114610648575f8415610636578287015190505b61064085826105c5565b8655506106a7565b601f19841661065686610437565b5f5b8281101561067d57848901518255600182019150602085019450602081019050610658565b8683101561069a5784890151610696601f8916826105a9565b8355505b6001600288020188555050505b505050505050565b6106b88161030d565b82525050565b5f6020820190506106d15f8301846106af565b92915050565b61111c806106e45f395ff3fe608060405234801561000f575f5ffd5b50600436106100cd575f3560e01c806370a082311161008a57806395d89b411161006457806395d89b41146101ff578063a9059cbb1461021d578063dd62ed3e1461024d578063f2fde38b1461027d576100cd565b806370a08231146101a7578063715018a6146101d75780638da5cb5b146101e1576100cd565b806306fdde03146100d1578063095ea7b3146100ef57806318160ddd1461011f57806323b872dd1461013d578063313ce5671461016d57806340c10f191461018b575b5f5ffd5b6100d9610299565b6040516100e69190610d95565b60405180910390f35b61010960048036038101906101049190610e46565b610329565b6040516101169190610e9e565b60405180910390f35b61012761034b565b6040516101349190610ec6565b60405180910390f35b61015760048036038101906101529190610edf565b610354565b6040516101649190610e9e565b60405180910390f35b610175610382565b6040516101829190610f4a565b60405180910390f35b6101a560048036038101906101a09190610e46565b61038a565b005b6101c160048036038101906101bc9190610f63565b6103a0565b6040516101ce9190610ec6565b60405180910390f35b6101df6103e5565b005b6101e96103f8565b6040516101f69190610f9d565b60405180910390f35b610207610420565b6040516102149190610d95565b60405180910390f35b61023760048036038101906102329190610e46565b6104b0565b6040516102449190610e9e565b60405180910390f35b61026760048036038101906102629190610fb6565b6104d2565b6040516102749190610ec6565b60405180910390f35b61029760048036038101906102929190610f63565b610554565b005b6060600380546102a890611021565b80601f01602080910402602001604051908101604052809291908181526020018280546102d490611021565b801561031f5780601f106102f65761010080835404028352916020019161031f565b820191905f5260205f20905b81548152906001019060200180831161030257829003601f168201915b5050505050905090565b5f5f6103336105d8565b90506103408185856105df565b600191505092915050565b5f600254905090565b5f5f61035e6105d8565b905061036b8582856105f1565b610376858585610684565b60019150509392505050565b5f6012905090565b610392610774565b61039c82826107fb565b5050565b5f5f5f8373ffffffffffffffffffffffffffffffffffffffff1673ffffffffffffffffffffffffffffffffffffffff1681526020019081526020015f20549050919050565b6103ed610774565b6103f65f61087a565b565b5f60055f9054906101000a900473ffffffffffffffffffffffffffffffffffffffff16905090565b60606004805461042f90611021565b80601f016020809104026020016040519081016040528092919081815260200182805461045b90611021565b80156104a65780601f1061047d576101008083540402835291602001916104a6565b820191905f5260205f20905b81548152906001019060200180831161048957829003601f168201915b5050505050905090565b5f5f6104ba6105d8565b90506104c7818585610684565b600191505092915050565b5f60015f8473ffffffffffffffffffffffffffffffffffffffff1673ffffffffffffffffffffffffffffffffffffffff1681526020019081526020015f205f8373ffffffffffffffffffffffffffffffffffffffff1673ffffffffffffffffffffffffffffffffffffffff1681526020019081526020015f2054905092915050565b61055c610774565b5f73ffffffffffffffffffffffffffffffffffffffff168173ffffffffffffffffffffffffffffffffffffffff16036105cc575f6040517f1e4fbdf70000000000000000000000000000000000000000000000000000000081526004016105c39190610f9d565b60405180910390fd5b6105d58161087a565b50565b5f33905090565b6105ec838383600161093d565b505050565b5f6105fc84846104d2565b90507fffffffffffffffffffffffffffffffffffffffffffffffffffffffffffffffff81101561067e578181101561066f578281836040517ffb8f41b200000000000000000000000000000000000000000000000000000000815260040161066693929190611051565b60405180910390fd5b61067d84848484035f61093d565b5b50505050565b5f73ffffffffffffffffffffffffffffffffffffffff168373ffffffffffffffffffffffffffffffffffffffff16036106f4575f6040517f96c6fd1e0000000000000000000000000000000000000000000000000000000081526004016106eb9190610f9d565b60405180910390fd5b5f73ffffffffffffffffffffffffffffffffffffffff168273ffffffffffffffffffffffffffffffffffffffff1603610764575f6040517fec442f0500000000000000000000000000000000000000000000000000000000815260040161075b9190610f9d565b60405180910390fd5b61076f838383610b0c565b505050565b61077c6105d8565b73ffffffffffffffffffffffffffffffffffffffff1661079a6103f8565b73ffffffffffffffffffffffffffffffffffffffff16146107f9576107bd6105d8565b6040517f118cdaa70000000000000000000000000000000000000000000000000000000081526004016107f09190610f9d565b60405180910390fd5b565b5f73ffffffffffffffffffffffffffffffffffffffff168273ffffffffffffffffffffffffffffffffffffffff160361086b575f6040517fec442f050000000000000000000000000000000000000000000000000000000081526004016108629190610f9d565b60405180910390fd5b6108765f8383610b0c565b5050565b5f60055f9054906101000a900473ffffffffffffffffffffffffffffffffffffffff1690508160055f6101000a81548173ffffffffffffffffffffffffffffffffffffffff021916908373ffffffffffffffffffffffffffffffffffffffff1602179055508173ffffffffffffffffffffffffffffffffffffffff168173ffffffffffffffffffffffffffffffffffffffff167f8be0079c531659141344cd1fd0a4f28419497f9722a3daafe3b4186f6b6457e060405160405180910390a35050565b5f73ffffffffffffffffffffffffffffffffffffffff168473ffffffffffffffffffffffffffffffffffffffff16036109ad575f6040517fe602df050000000000000000000000000000000000000000000000000000000081526004016109a49190610f9d565b60405180910390fd5b5f73ffffffffffffffffffffffffffffffffffffffff168373ffffffffffffffffffffffffffffffffffffffff1603610a1d575f6040517f94280d62000000000000000000000000000000000000000000000000000000008152600401610a149190610f9d565b60405180910390fd5b8160015f8673ffffffffffffffffffffffffffffffffffffffff1673ffffffffffffffffffffffffffffffffffffffff1681526020019081526020015f205f8573ffffffffffffffffffffffffffffffffffffffff1673ffffffffffffffffffffffffffffffffffffffff1681526020019081526020015f20819055508015610b06578273ffffffffffffffffffffffffffffffffffffffff168473ffffffffffffffffffffffffffffffffffffffff167f8c5be1e5ebec7d5bd14f71427d1e84f3dd0314c0f7b2291e5b200ac8c7c3b92584604051610afd9190610ec6565b60405180910390a35b50505050565b5f73ffffffffffffffffffffffffffffffffffffffff168373ffffffffffffffffffffffffffffffffffffffff1603610b5c578060025f828254610b5091906110b3565b92505081905550610c2a565b5f5f5f8573ffffffffffffffffffffffffffffffffffffffff1673ffffffffffffffffffffffffffffffffffffffff1681526020019081526020015f2054905081811015610be5578381836040517fe450d38c000000000000000000000000000000000000000000000000000000008152600401610bdc93929190611051565b60405180910390fd5b8181035f5f8673ffffffffffffffffffffffffffffffffffffffff1673ffffffffffffffffffffffffffffffffffffffff1681526020019081526020015f2081905550505b5f73ffffffffffffffffffffffffffffffffffffffff168273ffffffffffffffffffffffffffffffffffffffff1603610c71578060025f8282540392505081905550610cbb565b805f5f8473ffffffffffffffffffffffffffffffffffffffff1673ffffffffffffffffffffffffffffffffffffffff1681526020019081526020015f205f82825401925050819055505b8173ffffffffffffffffffffffffffffffffffffffff168373ffffffffffffffffffffffffffffffffffffffff167fddf252ad1be2c89b69c2b068fc378daa952ba7f163c4a11628f55a4df523b3ef83604051610d189190610ec6565b60405180910390a3505050565b5f81519050919050565b5f82825260208201905092915050565b8281835e5f83830152505050565b5f601f19601f8301169050919050565b5f610d6782610d25565b610d718185610d2f565b9350610d81818560208601610d3f565b610d8a81610d4d565b840191505092915050565b5f6020820190508181035f830152610dad8184610d5d565b905092915050565b5f5ffd5b5f73ffffffffffffffffffffffffffffffffffffffff82169050919050565b5f610de282610db9565b9050919050565b610df281610dd8565b8114610dfc575f5ffd5b50565b5f81359050610e0d81610de9565b92915050565b5f819050919050565b610e2581610e13565b8114610e2f575f5ffd5b50565b5f81359050610e4081610e1c565b92915050565b5f5f60408385031215610e5c57610e5b610db5565b5b5f610e6985828601610dff565b9250506020610e7a85828601610e32565b9150509250929050565b5f8115159050919050565b610e9881610e84565b82525050565b5f602082019050610eb15f830184610e8f565b92915050565b610ec081610e13565b82525050565b5f602082019050610ed95f830184610eb7565b92915050565b5f5f5f60608486031215610ef657610ef5610db5565b5b5f610f0386828701610dff565b9350506020610f1486828701610dff565b9250506040610f2586828701610e32565b9150509250925092565b5f60ff82169050919050565b610f4481610f2f565b82525050565b5f602082019050610f5d5f830184610f3b565b92915050565b5f60208284031215610f7857610f77610db5565b5b5f610f8584828501610dff565b91505092915050565b610f9781610dd8565b82525050565b5f602082019050610fb05f830184610f8e565b92915050565b5f5f60408385031215610fcc57610fcb610db5565b5b5f610fd985828601610dff565b9250506020610fea85828601610dff565b9150509250929050565b7f4e487b71000000000000000000000000000000000000000000000000000000005f52602260045260245ffd5b5f600282049050600182168061103857607f821691505b60208210810361104b5761104a610ff4565b5b50919050565b5f6060820190506110645f830186610f8e565b6110716020830185610eb7565b61107e6040830184610eb7565b949350505050565b7f4e487b71000000000000000000000000000000000000000000000000000000005f52601160045260245ffd5b5f6110bd82610e13565b91506110c883610e13565b92508282019050808211156110e0576110df611086565b5b9291505056fea2646970667358221220b727f653a08df37dc39f7dffe0df8e0bf1d7758775fba55f150022136030c76a64736f6c634300081c0033",
  "linkReferences": {},
  "deployedLinkReferences": {},
  "immutableReferences": {},
  "inputSourceName": "project/contracts/Campaign.sol",
  "buildInfoId": "solc-0_8_28-1122ea9d70937636536c2d724658ac6fe2daf7eb"
}